:100000000C942A000C94E5090C94180A0C944B0AE1
:100010000C9447000C9447000C9447000C94470044
:100020000C9447000C9447000C9499080C943E08DB
:100030000C9447000C9447000C9447000C94470024
:100040000C9447000C9447000C9447000C94470014
:100050000C94470011241FBECFE5D4E0DEBFCDBF16
:1000600011E0A0E6B0E0EAEEF8E302C005900D92E0
:10007000AC38B107D9F711E0ACE8B1E001C01D928E
:10008000A23AB107E1F70E943A1A0C94731C0C943F
:100090000000EF92FF920F931F937B018C0120E0F1
:1000A00030E040E05FE40E94F50388238CF0C80153
:1000B000B70120E030E040E05FE40E94C1010E940F
:1000C00055049B01AC01205030404040504806C0D0
:1000D000C801B7010E9455049B01AC01B901CA01D6
:1000E0001F910F91FF90EF900895A0E0B0E0EBE733
:1000F000F0E00C943C1CDC012B01FA019C91923045
:1001000008F439C1EB018881823008F433C194309E
:1001100069F4843009F02FC111969C91119789815F
:10012000981709F428C1A0E6B0E025C1843009F48D
:1001300021C18230A9F4923009F01DC19A01AD01AC
:1001400088E0EA010990AE01E90109929E0181501F
:10015000C1F7E201898111969C918923818308C1AD
:10016000923009F407C112962D903C901397EB0141
:100170008A819B811496AD90BD90CD90DC901797AD
:10018000EC80FD800E811F819101281B390BB90184
:1001900037FF04C066277727621B730B6032710537
:1001A0000CF061C0121613066CF537014801062EDB
:1001B00004C096948794779467940A94D2F721E0C8
:1001C00030E040E050E004C0220F331F441F551FB1
:1001D0006A95D2F721503040404050402E213F21B7
:1001E00040235123211531054105510521F021E01E
:1001F00030E040E050E079018A01E628F72808293C
:1002000019293CC0232BD1F1260E371E350146019A
:10021000062E04C096948794779467940A94D2F734
:1002200021E030E040E050E004C0220F331F441FC3
:10023000551F6A95D2F721503040404050402A2146
:100240003B214C215D21211531054105510521F04E
:1002500021E030E040E050E059016A01A628B728CB
:10026000C828D9280BC0821593052CF01C01AA249C
:10027000BB24650103C0EE24FF24870111969C91E5
:10028000D20111968C91981709F445C0992339F041
:10029000A80197012A193B094C095D0906C0A6016E
:1002A00095012E193F09400B510B57FD08C01182D3
:1002B0003382228224833583468357831DC081E0A5
:1002C00081833382228288279927DC01821B930B4A
:1002D000A40BB50B84839583A683B7830DC0220F2F
:1002E000331F441F551F24833583468357838281E0
:1002F000938101979383828324813581468157813D
:10030000DA01C9010197A109B1098F5F9F4FAF4F72
:10031000BF4328F30BC0918333822282EA0CFB1C7B
:100320000C1D1D1DE482F5820683178383E0808304
:10033000248135814681578157FF1AC0C901AA27F8
:1003400097FDA095BA2F81709070A070B0705695EF
:10035000479537952795822B932BA42BB52B848318
:100360009583A683B7838281938101969383828349
:10037000DF0101C0D201CD01CDB7DEB7E2E10C94BF
:10038000581CA0E2B0E0E7ECF1E00C94481C698353
:100390007A838B839C832D833E834F835887E9E048
:1003A000EE2EF12CEC0EFD1ECE010196B7010E943F
:1003B00046068E010F5E1F4FCE010596B8010E94C2
:1003C00046068A8991E089278A8BC701B801AE0168
:1003D000475E5F4F0E9475000E947105A096E6E09F
:1003E0000C94641CA0E2B0E0E8EFF1E00C94481C2F
:1003F00069837A838B839C832D833E834F835887C5
:10040000F9E0EF2EF12CEC0EFD1ECE010196B701A6
:100410000E9446068E010F5E1F4FCE010596B80161
:100420000E944606C701B801AE01475E5F4F0E94B9
:1004300075000E947105A096E6E00C94641CA0E291
:10044000B0E0E5E2F2E00C943C1C69837A838B8394
:100450009C832D833E834F835887CE010196BE0136
:10046000675F7F4F0E944606CE010596BE016F5E14
:100470007F4F0E9446069985923088F089898230A4
:10048000C8F0943019F4823051F404C0843029F457
:10049000923081F480E690E0C6C0923049F420E0CA
:1004A0009A858A89981321E02A87CE010996BBC0D4
:1004B000823049F420E09A858A89981321E02A8BBA
:1004C000CE014196B0C02D843E844F8458886D88FB
:1004D0007E888F88988CEE24FF248701AA24BB2471
:1004E000650140E050E060E070E0E0E0F0E0C10174
:1004F00081709070892BE9F0E60CF71C081D191D1E
:100500009A01AB012A0D3B1D4C1D5D1D80E090E062
:10051000A0E0B0E0E614F7040805190520F481E036
:1005200090E0A0E0B0E0BA01A901480F591F6A1F8E
:100530007B1FAA0CBB1CCC1CDD1C97FE08C081E0F5
:1005400090E0A0E0B0E0A82AB92ACA2ADB2A3196B6
:10055000E032F10549F0660C771C881C991C569412
:10056000479437942794C3CFFA85EA892B893C892D
:100570008B859C85280F391F2E5F3F4F17C0CA01FE
:1005800081709070892B61F016950795F794E79428
:1005900080E090E0A0E0B0E8E82AF92A0A2B1B2BC3
:1005A00076956795579547952F5F3F4F77FDE7CF36
:1005B0000CC0440F551F661F771F17FD4160EE0CDE
:1005C000FF1C001F111F21503040403090E05907A0
:1005D00090E0690790E4790760F32B8F3C8FDB0193
:1005E000CA018F779070A070B07080349105A1051A
:1005F000B10561F447FD0AC0E114F10401051105DC
:1006000029F0405C5F4F6F4F7F4F40781A8EFE1786
:1006100011F081E08A8F4D8F5E8F6F8F78A383E01A
:10062000898FCE0149960E947105A096E2E10C9453
:10063000581CA8E1B0E0EFE1F3E00C94441C69839E
:100640007A838B839C832D833E834F835887B9E0C5
:10065000EB2EF12CEC0EFD1ECE010196B7010E948F
:1006600046068E010F5E1F4FCE010596B8010E940F
:1006700046062985223008F47EC03989323010F4CC
:10068000B8017CC08A859A8989278A87243011F02D
:10069000223031F4231709F06EC060E670E06EC0BE
:1006A000343039F41D861E861F86188A1C861B86E8
:1006B00004C0323021F484E08987B7015FC02B8504
:1006C0003C858B899C89281B390B3C872B87ED84C3
:1006D000FE840F851889AD88BE88CF88D88CEA142F
:1006E000FB040C051D0540F4EE0CFF1C001F111F40
:1006F000215030403C872B8720E030E040E050E044
:1007000080E090E0A0E0B0E460E070E0EA14FB0478
:100710000C051D0540F0282B392B4A2B5B2BEA18C2
:10072000FB080C091D09B695A79597958795EE0CC2
:10073000FF1C001F111F6F5F7F4F6F31710531F775
:10074000DA01C9018F779070A070B0708034910584
:10075000A105B10561F427FD0AC0E114F10401050A
:10076000110529F0205C3F4F4F4F5F4F20782D87B8
:100770003E874F87588BBE01675F7F4FCB010E943A
:1007800071056896EAE00C94601CA8E1B0E0EBEC1F
:10079000F3E00C94481C69837A838B839C832D83BC
:1007A0003E834F83588789E0E82EF12CEC0EFD1E26
:1007B000CE010196B7010E9446068E010F5E1F4FC3
:1007C000CE010596B8010E9446068985823040F028
:1007D0008989823028F0C701B8010E94BE0601C095
:1007E0008FEF6896E6E00C94641CA8E1B0E0EBEFB4
:1007F000F3E00C94481C69837A838B839C832D835C
:100800003E834F83588789E0E82EF12CEC0EFD1EC5
:10081000CE010196B7010E9446068E010F5E1F4F62
:10082000CE010596B8010E9446068985823040F0C7
:100830008989823028F0C701B8010E94BE0601C034
:100840008FEF6896E6E00C94641CA8E1B0E0EBE260
:10085000F4E00C94481C69837A838B839C832D83FA
:100860003E834F83588789E0E82EF12CEC0EFD1E65
:10087000CE010196B7010E9446068E010F5E1F4F02
:10088000CE010596B8010E9446068985823040F067
:100890008989823028F0C701B8010E94BE0601C0D4
:1008A00081E06896E6E00C94641CACE0B0E0EBE517
:1008B000F4E00C944C1C69837A838B839C83CE0177
:1008C0000196BE016B5F7F4F0E9446068D8182308C
:1008D00061F1823050F1843021F48E81882351F10E
:1008E0002EC02F81388537FD20C06E812F31310514
:1008F0001CF06623F9F023C08EE190E0821B930B7D
:1009000029853A854B855C8504C056954795379572
:1009100027958A95D2F76623B1F05095409530958A
:1009200021953F4F4F4F5F4F0EC020E030E040E039
:1009300050E009C02FEF3FEF4FEF5FE704C020E02A
:1009400030E040E050E8B901CA012C96E2E00C9496
:10095000681CA8E0B0E0EFEAF4E00C94441C7B01D2
:100960008C01611571058105910519F482E0898377
:1009700060C083E089838EE1C82ED12CDC82CB82DB
:10098000ED82FE820F831887C801B7010E942205FD
:10099000FC013197F7FF3BC0222733272E1B3F0B6B
:1009A00057016801022E04C0D694C794B794A79447
:1009B0000A94D2F740E050E060E070E081E090E01F
:1009C000A0E0B0E004C0880F991FAA1FBB1F2A95A2
:1009D000D2F70197A109B1098E219F21A023B1234C
:1009E0000097A105B10521F041E050E060E070E022
:1009F0004A295B296C297D294D835E836F83788723
:100A00008EE190E08E1B9F0B9C838B8312C03097EE
:100A100081F00E2E04C0EE0CFF1C001F111F0A9463
:100A2000D2F7ED82FE820F831887CE1ADF0ADC82AE
:100A3000CB821A82CE0101960E9471052896EAE0C7
:100A40000C94601CEF92FF920F931F937B018C011B
:100A500080E0E81680E0F80681E0080780E01807EB
:100A600088F48FEFE816F1040105110531F028F044
:100A700088E090E0A0E0B0E017C080E090E0A0E067
:100A8000B0E012C080E0E81680E0F80680E00807D9
:100A900081E0180728F088E190E0A0E0B0E004C011
:100AA00080E190E0A0E0B0E020E230E040E050E003
:100AB000281B390B4A0B5B0B04C016950795F7945E
:100AC000E7948A95D2F7F701E859FF4F8081281BF8
:100AD000310941095109C9011F910F91FF90EF9010
:100AE0000895DF92EF92FF920F931F93FC01E48031
:100AF000F58006811781D1808081823048F480E0C2
:100B000090E0A0E1B0E0E82AF92A0A2B1B2BA5C04F
:100B1000843009F49FC0823021F4EE24FF24870141
:100B200005C0E114F1040105110519F4E0E0F0E05D
:100B300096C0628173819FEF623879070CF05BC0C9
:100B400022E83FEF261B370B2A3131052CF020E03D
:100B500030E040E050E02AC0B801A701022E04C0F6
:100B600076956795579547950A94D2F781E090E07E
:100B7000A0E0B0E004C0880F991FAA1FBB1F2A95F0
:100B8000D2F70197A109B1098E219F21A023B1239A
:100B90000097A105B10521F081E090E0A0E0B0E070
:100BA0009A01AB01282B392B4A2B5B2BDA01C901A7
:100BB0008F779070A070B07080349105A105B10559
:100BC00039F427FF09C0205C3F4F4F4F5F4F04C0EF
:100BD000215C3F4F4F4F5F4FE0E0F0E02030A0E05E
:100BE0003A07A0E04A07A0E45A0710F0E1E0F0E07D
:100BF00079018A0127C06038710564F5FB01E1586D
:100C0000FF4FD801C7018F779070A070B07080340B
:100C10009105A105B10539F4E7FE0DC080E490E02F
:100C2000A0E0B0E004C08FE390E0A0E0B0E0E80E08
:100C3000F91E0A1F1B1F17FF05C016950795F7948D
:100C4000E794319687E016950795F794E7948A958F
:100C5000D1F705C0EE24FF248701EFEFF0E06E2FFF
:100C6000679566276795902F9F77D794DD24D79453
:100C70008E2F8695492F462B582F5D29B701CA0123
:100C80001F910F91FF90EF90DF900895FC01DB0121
:100C9000408151812281622F6F7770E0221F2227CD
:100CA000221F9381892F880F822B282F30E0991FD4
:100CB0009927991F11969C93119721153105A9F534
:100CC000411551056105710511F482E037C082E8D4
:100CD0009FEF13969C938E9312979A01AB0167E056
:100CE000220F331F441F551F6A95D1F783E08C9361
:100CF0000DC0220F331F441F551F12968D919C91DA
:100D00001397019713969C938E931297203080E04F
:100D1000380780E0480780E4580758F314962D936D
:100D20003D934D935C93179708952F3F310579F4C8
:100D3000411551056105710519F484E08C930895FE
:100D400064FF03C081E08C9312C01C9210C02F5727
:100D5000304013963C932E93129783E08C9387E058
:100D6000440F551F661F771F8A95D1F7706414963C
:100D70004D935D936D937C93179708951F93DC01BA
:100D8000FB019C91923008F447C08081823008F4C6
:100D900043C0943051F411961C91843099F58181AF
:100DA000682F70E0611B71093FC0843021F09230E0
:100DB00031F48230B9F18181882389F12DC01196F7
:100DC0001C9111978230F1F081811817D9F4129695
:100DD0002D913C911397828193818217930794F010
:100DE00028173907BCF014968D919D910D90BC91F8
:100DF000A02D2481358146815781281739074A075C
:100E00005B0718F4112341F00AC082179307A40767
:100E1000B50740F4112319F061E070E005C06FEFF1
:100E20007FEF02C060E070E0CB011F910895DF9377
:100E3000CF93CDB7DEB7A5970FB6F894DEBF0FBE40
:100E4000CDBF6D8F7E8F8F8F98A3CE0109969AA309
:100E500089A3E8E6F1E0FCA3EBA3F4E1FDA3EBA199
:100E6000FCA100808BA19CA101969CA38BA3E9A16E
:100E7000FAA1008289A19AA101969AA389A39DA1B2
:100E800091509DA3EDA1EE2351F7898D9A8DAB8DE5
:100E9000BC8DBC01CD010E94A904DC01CB01BC01C9
:100EA000CD0120E030E040E851E40E941903DC016C
:100EB000CB018D839E83AF83B8878D8D9E8DAF8D43
:100EC000B8A128EE33E040E050E0BC01CD010E9423
:100ED000AD1BDC01CB01BC01CD010E94A904DC01EA
:100EE000CB01BC01CD012D813E814F8158850E94EF
:100EF0001903DC01CB01BC01CD010E944900DC01DA
:100F0000CB0189839A83AB83BC83A5960FB6F894F3
:100F1000DEBF0FBECDBFCF91DF910895DF93CF939A
:100F2000CDB7DEB7A3E5B0E0E3E5F0E08081806413
:100F30008C93A3E5B0E0E3E5F0E08081877F8C93BC
:100F4000A3E5B0E0E3E5F0E080818F7C8C93A3E53E
:100F5000B0E0E3E5F0E0808180628C93CF91DF9197
:100F60000895DF93CF93CDB7DEB7A3E5B0E0E3E517
:100F7000F0E08081887F8C93A3E5B0E0E3E5F0E0CA
:100F8000808185608C93CF91DF910895DF93CF931B
:100F90000F92CDB7DEB78983A9E5B0E0E9E5F0E0CF
:100FA0008081482F8981282F30E081E090E0022E57
:100FB00002C0880F991F0A94E2F7842B8C930F903C
:100FC000CF91DF910895DF93CF930F92CDB7DEB726
:100FD0008983A9E5B0E0E9E5F0E08081482F8981C7
:100FE000282F30E081E090E0022E02C0880F991F88
:100FF0000A94E2F7809584238C930F90CF91DF9130
:101000000895DF93CF930F92CDB7DEB7E3E5F0E01D
:101010008081E3E5F0E010820F90CF91DF91089599
:10102000DF93CF9300D000D00F92CDB7DEB79A8375
:1010300089836B838B81282F30E03D832C838C81C7
:101040009D81009731F02C813D812130310541F0A7
:101050000DC089819A81909395018093940106C077
:1010600089819A8190939701809396010F900F90B8
:101070000F900F900F90CF91DF9108951F920F92D4
:101080000FB60F9211242F933F934F935F936F935B
:101090007F938F939F93AF93BF93EF93FF93DF93D0
:1010A000CF93CDB7DEB78091980190919901A0912F
:1010B0009A01B0919B010196A11DB11D80939801E9
:1010C00090939901A0939A01B0939B01209198016C
:1010D0003091990140919A0150919B0180918C012E
:1010E00090918D01A0918E01B0918F012817390741
:1010F0004A075B0759F480919401909195010097FC
:1011000029F0E0919401F09195010995CF91DF913B
:10111000FF91EF91BF91AF919F918F917F916F91CF
:101120005F914F913F912F910F900FBE0F901F90A5
:1011300018951F920F920FB60F9211242F933F9381
:101140004F935F936F937F938F939F93AF93BF93CF
:10115000EF93FF93DF93CF93CDB7DEB780919601E6
:1011600090919701009729F0E0919601F0919701F5
:101170000995CF91DF91FF91EF91BF91AF919F9131
:101180008F917F916F915F914F913F912F910F9030
:101190000FBE0F901F901895DF93CF9300D000D013
:1011A0000F92CDB7DEB789838CE590E09D838C8369
:1011B0008981482F50E0CA019C01220F331FC901C9
:1011C0009695982F882797958795821B930B840F68
:1011D000951F24E630E0B9010E94D81BCB019B8308
:1011E0008A83EA81FB81FF233CF48A819B8190956D
:1011F00081959F4F9B838A838A81EC81FD818083C7
:101200000F900F900F900F900F90CF91DF91089556
:10121000DF93CF930F92CDB7DEB789830F90CF9135
:10122000DF910895DF93CF93CDB7DEB77894CF9158
:10123000DF910895DF93CF93CDB7DEB7F894CF91C8
:10124000DF910895DF93CF9300D000D0CDB7DEB704
:1012500089836A838A81843008F06BC08981282F52
:1012600030E03C832B838B819C818630910559F043
:101270002B813C8127303105B1F08B819C818530F9
:10128000910541F13DC0A5E5B0E0E5E5F0E08081E4
:101290008C7F8C93A4E5B0E0E4E5F0E090818A8156
:1012A000892B8C932DC0A5E5B0E0E5E5F0E08081C9
:1012B000837F8C93A4E5B0E0E4E5F0E08081282F03
:1012C0008A81882F90E0880F991F880F991F822BA1
:1012D0008C9316C0A4E5B0E0E4E5F0E08081282F0F
:1012E0008A81882F90E08170907000249695879570
:1012F0000794969587950794982F802D822B8C9331
:1013000089818530B0F08981883098F4ABE5B0E010
:10131000EBE5F0E08081482F8981282F30E081E0E3
:1013200090E0022E02C0880F991F0A94E2F7842BE6
:101330008C930F900F900F900F90CF91DF910895A5
:10134000DF93CF930F92CDB7DEB789830F90CF9104
:10135000DF910895DF93CF9300D000D00F92CDB7E7
:10136000DEB79A8389836B838B81282F30E03D839E
:101370002C838C819D818630910559F02C813D8193
:101380002730310569F08C819D818530910579F098
:1013900014C089819A8190939D0180939C010DC016
:1013A00089819A8190939F0180939E0106C08981D3
:1013B0009A819093A1018093A0010F900F900F90BC
:1013C0000F900F90CF91DF9108951F920F920FB65B
:1013D0000F9211242F933F934F935F936F937F93BB
:1013E0008F939F93AF93BF93EF93FF93DF93CF932D
:1013F000CDB7DEB780919C0190919D01009729F0B7
:10140000E0919C01F0919D010995CF91DF91FF91B1
:10141000EF91BF91AF919F918F917F916F915F916C
:101420004F913F912F910F900FBE0F901F901895E5
:101430001F920F920FB60F9211242F933F934F9349
:101440005F936F937F938F939F93AF93BF93EF932C
:10145000FF93DF93CF93CDB7DEB780919E0190913C
:101460009F01009729F0E0919E01F0919F0109955D
:10147000CF91DF91FF91EF91BF91AF919F918F91AC
:101480007F916F915F914F913F912F910F900FBE80
:101490000F901F9018951F920F920FB60F92112464
:1014A0002F933F934F935F936F937F938F939F936C
:1014B000AF93BF93EF93FF93DF93CF93CDB7DEB797
:1014C0008091A0019091A101009729F0E091A001E5
:1014D000F091A1010995CF91DF91FF91EF91BF911B
:1014E000AF919F918F917F916F915F914F913F91BC
:1014F0002F910F900FBE0F901F901895DF93CF93F1
:10150000CDB7DEB727970FB6F894DEBF0FBECDBFBD
:1015100089836A834B838B81882309F075C0898115
:10152000282F30E03F832E838E819F81823091056A
:1015300061F12E813F812330310534F48E819F810A
:101540008130910569F0D3C02E813F812330310570
:1015500089F18E819F818430910509F440C0C7C014
:10156000AAE3B0E0EAE3F0E08081482F8A81282FE7
:1015700030E081E090E0022E02C0880F991F0A94AB
:10158000E2F7809584238C93B2C0A7E3B0E0E7E351
:10159000F0E08081482F8A81282F30E081E090E0C0
:1015A000022E02C0880F991F0A94E2F780958423C7
:1015B0008C939DC0A4E3B0E0E4E3F0E08081482F89
:1015C0008A81282F30E081E090E0022E02C0880F4F
:1015D000991F0A94E2F7809584238C9388C0A1E335
:1015E000B0E0E1E3F0E08081482F8A81282F30E0ED
:1015F00081E090E0022E02C0880F991F0A94E2F762
:10160000809584238C9373C08B81813009F06FC0E7
:101610008981282F30E03D832C838C819D8182300D
:10162000910551F12C813D812330310534F48C81B9
:101630009D818130910561F05AC02C813D8123301C
:10164000310571F18C819D8184309105E9F14FC0A4
:10165000AAE3B0E0EAE3F0E08081482F8A81282FF6
:1016600030E081E090E0022E02C0880F991F0A94BA
:10167000E2F7842B8C933BC0A7E3B0E0E7E3F0E014
:101680008081482F8A81282F30E081E090E0022E6F
:1016900002C0880F991F0A94E2F7842B8C9327C00D
:1016A000A4E3B0E0E4E3F0E08081482F8A81282FB2
:1016B00030E081E090E0022E02C0880F991F0A946A
:1016C000E2F7842B8C9313C0A1E3B0E0E1E3F0E0F8
:1016D0008081482F8A81282F30E081E090E0022E1F
:1016E00002C0880F991F0A94E2F7842B8C932796E7
:1016F0000FB6F894DEBF0FBECDBFCF91DF91089536
:10170000DF93CF9300D000D00F92CDB7DEB789839F
:101710006A834B838981282F30E03D832C838C8121
:101720009D818230910509F448C02C813D81233090
:10173000310534F48C819D818130910571F0CBC0ED
:101740002C813D812330310509F467C08C819D8156
:101750008430910509F491C0BEC08B818130A1F421
:10176000ABE3B0E0EBE3F0E08081482F8A81282FE3
:1017700030E081E090E0022E02C0880F991F0A94A9
:10178000E2F7842B8C93A7C08B81882309F0A3C038
:10179000ABE3B0E0EBE3F0E08081482F8A81282FB3
:1017A00030E081E090E0022E02C0880F991F0A9479
:1017B000E2F7809584238C938EC08B818130A1F4D5
:1017C000A8E3B0E0E8E3F0E08081482F8A81282F89
:1017D00030E081E090E0022E02C0880F991F0A9449
:1017E000E2F7842B8C9377C08B81882309F073C038
:1017F000A8E3B0E0E8E3F0E08081482F8A81282F59
:1018000030E081E090E0022E02C0880F991F0A9418
:10181000E2F7809584238C935EC08B818130A1F4A4
:10182000A5E3B0E0E5E3F0E08081482F8A81282F2E
:1018300030E081E090E0022E02C0880F991F0A94E8
:10184000E2F7842B8C9347C08B81882309F043C037
:10185000A5E3B0E0E5E3F0E08081482F8A81282FFE
:1018600030E081E090E0022E02C0880F991F0A94B8
:10187000E2F7809584238C932EC08B818130A1F474
:10188000A2E3B0E0E2E3F0E08081482F8A81282FD4
:1018900030E081E090E0022E02C0880F991F0A9488
:1018A000E2F7842B8C9317C08B818823A1F4A2E3E9
:1018B000B0E0E2E3F0E08081482F8A81282F30E019
:1018C00081E090E0022E02C0880F991F0A94E2F78F
:1018D000809584238C930F900F900F900F900F9012
:1018E000CF91DF910895DF93CF9300D000D000D047
:1018F000CDB7DEB789836A835C834B838981282FC8
:1019000030E03E832D834D815E8142305105C1F12F
:101910008D819E818330910534F42D813E8121306B
:10192000310571F08CC04D815E814330510509F461
:1019300047C08D819E818430910509F461C07FC0CC
:10194000E9E3F0E08081482F50E08A81282F30E0E1
:1019500081E090E002C0880F991F2A95E2F79A0172
:10196000282339238A81882F90E0A90102C0559548
:1019700047958A95E2F7CA01EB81FC8180835FC0BD
:10198000E6E3F0E08081482F50E08A81282F30E0A4
:1019900081E090E002C0880F991F2A95E2F79A0132
:1019A000282339238A81882F90E0A90102C0559508
:1019B00047958A95E2F7CA01EB81FC8180833FC09D
:1019C000E3E3F0E08081482F50E08A81282F30E067
:1019D00081E090E002C0880F991F2A95E2F79A01F2
:1019E000282339238A81882F90E0A90102C05595C8
:1019F00047958A95E2F7CA01EB81FC8180831FC07D
:101A0000E0E3F0E08081482F50E08A81282F30E029
:101A100081E090E002C0880F991F2A95E2F79A01B1
:101A2000282339238A81882F90E0A90102C0559587
:101A300047958A95E2F7CA01EB81FC81808326965F
:101A40000FB6F894DEBF0FBECDBFCF91DF910895E2
:101A5000DF93CF9300D000D0CDB7DEB789836A8300
:101A60008981282F30E03C832B838B819C818230BD
:101A7000910551F12B813C812330310534F48B8168
:101A80009C818130910561F05AC02B813C812330CB
:101A9000310571F18B819C8184309105E9F14FC052
:101AA000ABE3B0E0EBE3F0E08081482F8A81282FA0
:101AB00030E081E090E0022E02C0880F991F0A9466
:101AC000E2F784278C933BC0A8E3B0E0E8E3F0E0C2
:101AD0008081482F8A81282F30E081E090E0022E1B
:101AE00002C0880F991F0A94E2F784278C9327C0BD
:101AF000A5E3B0E0E5E3F0E08081482F8A81282F5C
:101B000030E081E090E0022E02C0880F991F0A9415
:101B1000E2F784278C9313C0A2E3B0E0E2E3F0E0A5
:101B20008081482F8A81282F30E081E090E0022ECA
:101B300002C0880F991F0A94E2F784278C930F90B4
:101B40000F900F900F90CF91DF910895DF93CF9377
:101B50000F92CDB7DEB78983A7E2B0E0E7E2F0E00D
:101B600090818981892B80648C93A6E2B0E0E6E2C3
:101B7000F0E0808180648C93A6E2B0E0E6E2F0E0E1
:101B8000808187688C930F90CF91DF910895DF93C8
:101B9000CF9300D000D000D0CDB7DEB71E821D821B
:101BA000A6E2B0E0E6E2F0E0808180648C93E6E2B9
:101BB000F0E08081882F90E0807490700097B9F7F2
:101BC000E4E2F0E08081882F90E09C838B83E5E263
:101BD000F0E08081882F90E0982F88279A8389836E
:101BE0002B813C8189819A81820F931F9E838D83F3
:101BF0008D819E8126960FB6F894DEBF0FBECDBFB5
:101C0000CF91DF910895DF93CF93CDB7DEB781E019
:101C100061E041E00E947E0A81E062E041E00E94D2
:101C20007E0A81E063E041E00E947E0A81E064E098
:101C300041E00E947E0A81E065E041E00E947E0A68
:101C400081E066E041E00E947E0A81E067E041E0D9
:101C50000E947E0A82E060E041E00E947E0A83E00A
:101C600066E041E00E947E0A83E067E041E00E9476
:101C70007E0ACF91DF910895DF93CF93CDB7DEB782
:101C8000A5970FB6F894DEBF0FBECDBF89A389A17B
:101C9000843608F082C489A19AE0692F0E94CC1B87
:101CA000892F882F90E098A38F8F89A19AE0692FC0
:101CB0000E94CC1B8E8F1D8E6CC42F8D38A13DA32E
:101CC0002CA38CA19DA18430910509F4D2C02CA134
:101CD0003DA125303105C0F48CA19DA18130910535
:101CE00009F45BC02CA13DA12130310590F18CA1FC
:101CF0009DA18230910509F474C02CA13DA123302F
:101D0000310509F492C08CC18CA19DA18730910549
:101D100009F41BC12CA13DA12830310568F48CA128
:101D20009DA18530910509F4C8C02CA13DA12630A4
:101D3000310509F4E6C074C18CA19DA188309105DC
:101D400009F427C12CA13DA12930310509F445C171
:101D500067C181E061E041E00E94800B81E062E0C8
:101D600041E00E94800B81E063E041E00E94800B33
:101D700081E064E041E00E94800B81E065E041E0A9
:101D80000E94800B81E066E041E00E94800B81E0D0
:101D900067E040E00E94800B43C181E061E040E0E9
:101DA0000E94800B81E062E041E00E94800B81E0B4
:101DB00063E041E00E94800B81E064E040E00E942B
:101DC000800B81E065E040E00E94800B81E066E0EE
:101DD00040E00E94800B81E067E040E00E94800BC1
:101DE0001FC181E061E041E00E94800B81E062E080
:101DF00041E00E94800B81E063E040E00E94800BA4
:101E000081E064E041E00E94800B81E065E041E018
:101E10000E94800B81E066E040E00E94800B81E040
:101E200067E041E00E94800BFBC081E061E041E09F
:101E30000E94800B81E062E041E00E94800B81E023
:101E400063E041E00E94800B81E064E041E00E9499
:101E5000800B81E065E040E00E94800B81E066E05D
:101E600040E00E94800B81E067E041E00E94800B2F
:101E7000D7C081E061E040E00E94800B81E062E039
:101E800041E00E94800B81E063E041E00E94800B12
:101E900081E064E040E00E94800B81E065E040E08A
:101EA0000E94800B81E066E041E00E94800B81E0AF
:101EB00067E041E00E94800BB3C081E061E041E057
:101EC0000E94800B81E062E040E00E94800B81E094
:101ED00063E041E00E94800B81E064E041E00E9409
:101EE000800B81E065E040E00E94800B81E066E0CD
:101EF00041E00E94800B81E067E041E00E94800B9E
:101F00008FC081E061E041E00E94800B81E062E0EF
:101F100040E00E94800B81E063E041E00E94800B82
:101F200081E064E041E00E94800B81E065E041E0F7
:101F30000E94800B81E066E041E00E94800B81E01E
:101F400067E041E00E94800B6BC081E061E041E00E
:101F50000E94800B81E062E041E00E94800B81E002
:101F600063E041E00E94800B81E064E040E00E9479
:101F7000800B81E065E040E00E94800B81E066E03C
:101F800040E00E94800B81E067E040E00E94800B0F
:101F900047C081E061E041E00E94800B81E062E0A7
:101FA00041E00E94800B81E063E041E00E94800BF1
:101FB00081E064E041E00E94800B81E065E041E067
:101FC0000E94800B81E066E041E00E94800B81E08E
:101FD00067E041E00E94800B23C081E061E041E0C6
:101FE0000E94800B81E062E041E00E94800B81E072
:101FF00063E041E00E94800B81E064E041E00E94E8
:10200000800B81E065E040E00E94800B81E066E0AB
:1020100041E00E94800B81E067E041E00E94800B7C
:1020200083E066E041E00E94800B83E067E040E0EF
:102030000E94800B80E090E0A0E8BFE3898F9A8F38
:10204000AB8FBC8F698D7A8D8B8D9C8D20E030E0BD
:102050004AE753E40E941F02DC01CB018D8B9E8B6B
:10206000AF8BB88F6D897E898F89988D20E030E0A5
:1020700040E85FE30E94250488232CF481E090E08F
:102080009C8B8B8B3FC06D897E898F89988D20E0DA
:102090003FEF4FE757E40E94C50318164CF5698DD2
:1020A0007A8D8B8D9C8D20E030E040E251E40E94DF
:1020B0001F02DC01CB01BC01CD010E944900DC0103
:1020C000CB019C8B8B8B0FC089E190E09A8B898B25
:1020D00089899A890197F1F79A8B898B8B899C89D9
:1020E00001979C8B8B8B8B899C89009769F714C017
:1020F0006D897E898F89988D0E944900DC01CB0112
:102100009C8B8B8B8B899C89988B8F878F859889EB
:102110000197F1F7988B8F8783E066E040E00E949B
:10212000800B8E8D282F30E03BA32AA38AA19BA190
:102130008430910509F4D7C02AA13BA1253031058F
:10214000ECF48AA19BA18130910509F460C02AA119
:102150003BA1223031052CF48AA19BA1009799F173
:1021600099C12AA13BA12230310509F474C08AA18A
:102170009BA18330910509F492C08CC12AA13BA197
:102180002730310509F41BC18AA19BA18830910534
:102190006CF42AA13BA12530310509F4C8C08AA1FD
:1021A0009BA18630910509F4E6C074C12AA13BA128
:1021B0002830310509F427C18AA19BA189309105F6
:1021C00009F445C167C181E061E041E00E94800BF4
:1021D00081E062E041E00E94800B81E063E041E049
:1021E0000E94800B81E064E041E00E94800B81E06E
:1021F00065E041E00E94800B81E066E041E00E94E2
:10220000800B81E067E040E00E94800B43C181E0E9
:1022100061E040E00E94800B81E062E041E00E94CA
:10222000800B81E063E041E00E94800B81E064E08C
:1022300040E00E94800B81E065E040E00E94800B5E
:1022400081E066E040E00E94800B81E067E040E0D2
:102250000E94800B1FC181E061E041E00E94800B81
:1022600081E062E041E00E94800B81E063E040E0B9
:102270000E94800B81E064E041E00E94800B81E0DD
:1022800065E041E00E94800B81E066E040E00E9452
:10229000800B81E067E041E00E94800BFBC081E0A1
:1022A00061E041E00E94800B81E062E041E00E9439
:1022B000800B81E063E041E00E94800B81E064E0FC
:1022C00041E00E94800B81E065E040E00E94800BCD
:1022D00081E066E040E00E94800B81E067E041E041
:1022E0000E94800BD7C081E061E040E00E94800B3B
:1022F00081E062E041E00E94800B81E063E041E028
:102300000E94800B81E064E040E00E94800B81E04D
:1023100065E040E00E94800B81E066E041E00E94C1
:10232000800B81E067E041E00E94800BB3C081E058
:1023300061E041E00E94800B81E062E040E00E94A9
:10234000800B81E063E041E00E94800B81E064E06B
:1023500041E00E94800B81E065E040E00E94800B3C
:1023600081E066E041E00E94800B81E067E041E0AF
:102370000E94800B8FC081E061E041E00E94800BF1
:1023800081E062E040E00E94800B81E063E041E098
:102390000E94800B81E064E041E00E94800B81E0BC
:1023A00065E041E00E94800B81E066E041E00E9430
:1023B000800B81E067E041E00E94800B6BC081E010
:1023C00061E041E00E94800B81E062E041E00E9418
:1023D000800B81E063E041E00E94800B81E064E0DB
:1023E00040E00E94800B81E065E040E00E94800BAD
:1023F00081E066E040E00E94800B81E067E040E021
:102400000E94800B47C081E061E041E00E94800BA8
:1024100081E062E041E00E94800B81E063E041E006
:102420000E94800B81E064E041E00E94800B81E02B
:1024300065E041E00E94800B81E066E041E00E949F
:10244000800B81E067E041E00E94800B23C081E0C7
:1024500061E041E00E94800B81E062E041E00E9487
:10246000800B81E063E041E00E94800B81E064E04A
:1024700041E00E94800B81E065E040E00E94800B1B
:1024800081E066E041E00E94800B81E067E041E08E
:102490000E94800B83E067E041E00E94800B80E0B7
:1024A00090E0A0E8BFE38B879C87AD87BE876B85F4
:1024B0007C858D859E8520E030E04AE753E40E94CC
:1024C0001F02DC01CB018F839887A987BA876F81B0
:1024D000788589859A8520E030E040E85FE30E94B6
:1024E000250488232CF481E090E09E838D833FC0F7
:1024F0006F81788589859A8520E03FEF4FE757E423
:102500000E94C50318164CF56B857C858D859E85CC
:1025100020E030E040E251E40E941F02DC01CB01E8
:10252000BC01CD010E944900DC01CB019E838D835B
:102530000FC089E190E09C838B838B819C81019704
:10254000F1F79C838B838D819E8101979E838D8380
:102550008D819E81009769F714C06F817885898588
:102560009A850E944900DC01CB019E838D838D8179
:102570009E819A83898389819A810197F1F79A8351
:10258000898383E067E040E00E94800B8D8D8F5F40
:102590008D8F8D8D8A3F08F490CBA5960FB6F89459
:1025A000DEBF0FBECDBFCF91DF910895DF93CF93F4
:1025B00000D00F92CDB7DEB789838981282F30E014
:1025C0003B832A838A819B818130910579F02A811E
:1025D0003B812230310581F08A819B81009789F40B
:1025E00083E060E041E00E947E0A0BC083E061E08E
:1025F00041E00E947E0A05C083E062E041E00E9463
:102600007E0A0F900F900F90CF91DF910895DF9386
:10261000CF9300D00F92CDB7DEB789838981282F61
:1026200030E03B832A838A819B818130910579F058
:102630002A813B812230310581F08A819B8100977C
:1026400089F483E060E041E00E94800B0BC083E0EE
:1026500061E041E00E94800B05C083E062E041E060
:102660000E94800B0F900F900F90CF91DF910895F3
:10267000DF93CF9300D00F92CDB7DEB789838981E6
:10268000282F30E03B832A838A819B81813091050A
:1026900079F02A813B812230310581F08A819B814A
:1026A000009789F483E060E040E00E94800B0BC05B
:1026B00083E061E040E00E94800B05C083E062E0BF
:1026C00040E00E94800B0F900F900F90CF91DF9110
:1026D0000895DF93CF9300D00F92CDB7DEB78983F3
:1026E0008981282F30E03B832A838A819B81813036
:1026F000910571F02A813B812230310571F08A8188
:102700009B81009771F483E060E00E94280D09C06E
:1027100083E061E00E94280D04C083E062E00E9433
:10272000280D0F900F900F90CF91DF910895DF93B8
:10273000CF93CDB7DEB7AA970FB6F894DEBF0FBE22
:10274000CDBF81E061E041E00E947E0A81E062E06D
:1027500041E00E947E0A81E066E041E00E947E0A3C
:1027600081E065E041E00E947E0A81E064E041E0B2
:102770000E947E0A81E063E041E00E947E0A80E0E0
:1027800090E0ACE0B2E48FA398A7A9A7BAA76FA185
:1027900078A589A59AA520E030E04AE753E40E9495
:1027A0001F02DC01CB018BA39CA3ADA3BEA36BA135
:1027B0007CA18DA19EA120E030E040E85FE30E9473
:1027C000250488232CF481E090E09AA389A33FC0DC
:1027D0006BA17CA18DA19EA120E03FEF4FE757E4C4
:1027E0000E94C50318164CF56FA178A589A59AA576
:1027F00020E030E040E251E40E941F02DC01CB0106
:10280000BC01CD010E944900DC01CB019AA389A340
:102810000FC089E190E098A38F8F8F8D98A10197C9
:10282000F1F798A38F8F89A19AA101979AA389A301
:1028300089A19AA1009769F714C06BA17CA18DA111
:102840009EA10E944900DC01CB019AA389A389A122
:102850009AA19E8F8D8F8D8D9E8D0197F1F79E8F02
:102860008D8F81E061E040E00E94800B81E062E0BA
:1028700040E00E94800B81E066E040E00E94800B17
:1028800081E065E040E00E94800B81E064E041E08F
:102890000E94800B81E063E040E00E94800B81E0B9
:1028A00062E041E00E94800B80E090E0A0E8BFE39E
:1028B000898F9A8FAB8FBC8F698D7A8D8B8D9C8D14
:1028C00020E030E04AE753E40E941F02DC01CB0124
:1028D0008D8B9E8BAF8BB88F6D897E898F89988DFC
:1028E00020E030E040E85FE30E94250488232CF4D8
:1028F00081E090E09C8B8B8B3FC06D897E898F89B6
:10290000988D20E03FEF4FE757E40E94C50318166B
:102910004CF5698D7A8D8B8D9C8D20E030E040E206
:1029200051E40E941F02DC01CB01BC01CD010E94D9
:102930004900DC01CB019C8B8B8B0FC089E190E0BF
:102940009A8B898B89899A890197F1F79A8B898B60
:102950008B899C8901979C8B8B8B8B899C89009799
:1029600069F714C06D897E898F89988D0E9449000E
:10297000DC01CB019C8B8B8B8B899C89988B8F87FF
:102980008F8598890197F1F7988B8F8781E062E0B6
:1029900040E00E94800B80E090E0A0EAB0E48B87EA
:1029A0009C87AD87BE876B857C858D859E8520E065
:1029B00030E04AE753E40E941F02DC01CB018F8321
:1029C0009887A987BA876F81788589859A8520E05D
:1029D00030E040E85FE30E94250488232CF481E086
:1029E00090E09E838D833FC06F81788589859A852D
:1029F00020E03FEF4FE757E40E94C50318164CF55F
:102A00006B857C858D859E8520E030E040E251E439
:102A10000E941F02DC01CB01BC01CD010E944900D4
:102A2000DC01CB019E838D830FC089E190E09C8304
:102A30008B838B819C810197F1F79C838B838D81A4
:102A40009E8101979E838D838D819E81009769F77A
:102A500014C06F81788589859A850E944900DC01C0
:102A6000CB019E838D838D819E819A838983898109
:102A70009A810197F1F79A83898388E20E9464150D
:102A80008EE00E94641581E00E94641586E00E9439
:102A90006415AA960FB6F894DEBF0FBECDBFCF91D6
:102AA000DF910895DF93CF930F92CDB7DEB789837F
:102AB00081E061E041E00E94800B89810E947E16E6
:102AC0000F90CF91DF910895DF93CF930F92CDB701
:102AD000DEB7898381E061E040E00E94800B89815C
:102AE0000E947E160F90CF91DF910895DF93CF93D0
:102AF00000D0CDB7DEB79A8389830AC0E981FA8115
:102B000080810E94521589819A8101969A838983D6
:102B1000E981FA818081882389F70F900F90CF9106
:102B2000DF910895DF93CF93CDB7DEB781E00E94A8
:102B30006415CF91DF9108950F931F93DF93CF9387
:102B4000CDB7DEB72F970FB6F894DEBF0FBECDBF5F
:102B50006C877D878E879F878AE0FE013296DF0132
:102B6000982F1D929A95E9F719828C859D85AE85DF
:102B7000BF850097A105B10521F480E30E9452159D
:102B800069C08C859D85AE85BF85BB230CF042C096
:102B90008DE20E9452158C859D85AE85BF85B095CE
:102BA000A095909581959F4FAF4FBF4F8C879D8784
:102BB000AE87BF872FC08981082F112707FD109589
:102BC0008C859D85AE85BF852AE030E040E050E0F1
:102BD000BC01CD010E94EB1BDC01CB01282FCE01F3
:102BE0000296FC01E00FF11F20838C859D85AE8548
:102BF000BF852AE030E040E050E0BC01CD010E94FA
:102C0000EB1BDA01C9018C879D87AE87BF8789815D
:102C10008F5F89838C859D85AE85BF850097A105D3
:102C2000B10549F689818150898311C08981282F96
:102C3000332727FD3095CE010296FC01E20FF31FEA
:102C40008081805D0E9452158981815089838981AC
:102C5000882364F72F960FB6F894DEBF0FBECDBF62
:102C6000CF91DF911F910F910895DF93CF9300D003
:102C700000D0CDB7DEB789836A838981882319F0B4
:102C800089818130D9F48A818031C0F48981282FEB
:102C900030E03C832B838B819C81009731F02B812A
:102CA0003C812130310531F009C08A8180580E9471
:102CB000641504C08A8180540E9464150F900F909F
:102CC0000F900F90CF91DF910895DF93CF9300D0B5
:102CD0000F92CDB7DEB79A8389836B830F900F90E5
:102CE0000F90CF91DF910895DF93CF930F92CDB7DF
:102CF000DEB789830F90CF91DF910895DF93CF9353
:102D0000CDB7DEB7E9970FB6F894DEBF0FBECDBFE3
:102D100089AF81E062E040E00E94800B89AD82953E
:102D20008F70982F917081E063E0492F0E94800B93
:102D300089AD829586958770982F917081E064E0C7
:102D4000492F0E94800B89AD829586958695837068
:102D5000982F917081E065E0492F0E94800B89AD2A
:102D6000982F991F9927991F81E066E0492F0E94AB
:102D7000800B81E062E041E00E94800B80E090E007
:102D8000A0E8BFE38DAB9EABAFABB8AF6DA97EA99A
:102D90008FA998AD20E030E04AE753E40E941F027B
:102DA000DC01CB0189AB9AABABABBCAB69A97AA90F
:102DB0008BA99CA920E030E040E85FE30E94250455
:102DC00088232CF481E090E098AB8FA73FC069A9DD
:102DD0007AA98BA99CA920E03FEF4FE757E40E9416
:102DE000C50318164CF56DA97EA98FA998AD20E0F2
:102DF00030E040E251E40E941F02DC01CB01BC0143
:102E0000CD010E944900DC01CB0198AB8FA70FC018
:102E100089E190E09EA78DA78DA59EA50197F1F76A
:102E20009EA78DA78FA598A9019798AB8FA78FA56F
:102E300098A9009769F714C069A97AA98BA99CA9D8
:102E40000E944900DC01CB0198AB8FA78FA598A900
:102E50009CA78BA78BA59CA50197F1F79CA78BA797
:102E600081E062E040E00E94800B80E090E0A0EA18
:102E7000B0E48FA398A7A9A7BAA76FA178A589A541
:102E80009AA520E030E04AE753E40E941F02DC01EB
:102E9000CB018BA39CA3ADA3BEA36BA17CA18DA1F1
:102EA0009EA120E030E040E85FE30E9425048823F3
:102EB0002CF481E090E09AA389A33FC06BA17CA190
:102EC0008DA19EA120E03FEF4FE757E40E94C5038C
:102ED00018164CF56FA178A589A59AA520E030E0D9
:102EE00040E251E40E941F02DC01CB01BC01CD0194
:102EF0000E944900DC01CB019AA389A30FC089E19C
:102F000090E098A38F8F8F8D98A10197F1F798A3E8
:102F10008F8F89A19AA101979AA389A389A19AA1C8
:102F2000009769F714C06BA17CA18DA19EA10E949E
:102F30004900DC01CB019AA389A389A19AA19E8FA4
:102F40008D8F8D8D9E8D0197F1F79E8F8D8F89AD21
:102F5000982F917081E063E0492F0E94800B89AD2A
:102F60008695982F917081E064E0492F0E94800B34
:102F700089AD86958695982F917081E065E0492FFF
:102F80000E94800B89AD869586958695982F9170C5
:102F900081E066E0492F0E94800B81E062E041E021
:102FA0000E94800B80E090E0A0E8BFE3898F9A8FB9
:102FB000AB8FBC8F698D7A8D8B8D9C8D20E030E03E
:102FC0004AE753E40E941F02DC01CB018D8B9E8BEC
:102FD000AF8BB88F6D897E898F89988D20E030E026
:102FE00040E85FE30E94250488232CF481E090E010
:102FF0009C8B8B8B3FC06D897E898F89988D20E05B
:103000003FEF4FE757E40E94C50318164CF5698D52
:103010007A8D8B8D9C8D20E030E040E251E40E945F
:103020001F02DC01CB01BC01CD010E944900DC0183
:10303000CB019C8B8B8B0FC089E190E09A8B898BA5
:1030400089899A890197F1F79A8B898B8B899C8959
:1030500001979C8B8B8B8B899C89009769F714C097
:103060006D897E898F89988D0E944900DC01CB0192
:103070009C8B8B8B8B899C89988B8F878F8598896C
:103080000197F1F7988B8F8781E062E040E00E9422
:10309000800B80E090E0A0EAB0E48B879C87AD874E
:1030A000BE876B857C858D859E8520E030E04AE774
:1030B00053E40E941F02DC01CB018F839887A9870C
:1030C000BA876F81788589859A8520E030E040E86D
:1030D0005FE30E94250488232CF481E090E09E8326
:1030E0008D833FC06F81788589859A8520E03FEF89
:1030F0004FE757E40E94C50318164CF56B857C8595
:103100008D859E8520E030E040E251E40E941F0260
:10311000DC01CB01BC01CD010E944900DC01CB01E7
:103120009E838D830FC089E190E09C838B838B818C
:103130009C810197F1F79C838B838D819E81019700
:103140009E838D838D819E81009769F714C06F8166
:10315000788589859A850E944900DC01CB019E8390
:103160008D838D819E819A83898389819A8101973C
:10317000F1F79A838983E9960FB6F894DEBF0FBE04
:10318000CDBFCF91DF910895DF93CF93CDB7DEB759
:1031900082E064E041E00E947E0A82E065E041E076
:1031A0000E947E0A82E066E041E00E947E0A82E0A0
:1031B00067E041E00E947E0A84E062E040E00E9415
:1031C0007E0A84E063E040E00E947E0A84E064E0DE
:1031D00040E00E947E0A84E065E040E00E947E0AB2
:1031E00082E064E041E00E94800B82E065E041E023
:1031F0000E94800B82E066E041E00E94800B82E04A
:1032000067E041E00E94800BCF91DF910895DF934A
:10321000CF93CDB7DEB7A8970FB6F894DEBF0FBE39
:10322000CDBF8FEF898BCE0143969DA38CA3ECE796
:10323000F1E0FFA3EEA3F0E1F8A7EEA1FFA100806B
:103240008EA19FA101969FA38EA3ECA1FDA1008258
:103250008CA19DA101969DA38CA398A5915098A7A0
:10326000E8A5EE2351F784E0888BCAC082E0688924
:1032700040E00E94800B82E08F87B6C09E012E5EE8
:103280003F4F84E06F85A9010E94730C8A898823CF
:1032900009F0A7C080E090E0A8E4B3E48B879C87A6
:1032A000AD87BE876B857C858D859E8520E030E06F
:1032B0004AE753E40E941F02DC01CB018F83988709
:1032C000A987BA876F81788589859A8520E030E063
:1032D00040E85FE30E94250488232CF481E090E01D
:1032E0009E838D833FC06F81788589859A8520E094
:1032F0003FEF4FE757E40E94C50318164CF56B8566
:103300007C858D859E8520E030E040E251E40E947E
:103310001F02DC01CB01BC01CD010E944900DC0190
:10332000CB019E838D830FC089E190E09C838B83CA
:103330008B819C810197F1F79C838B838D819E818A
:1033400001979E838D838D819E81009769F714C0BC
:103350006F81788589859A850E944900DC01CB01BF
:103360009E838D838D819E819A83898389819A81B1
:103370000197F1F79A8389839E012E5E3F4F84E087
:103380006F85A9010E94730C8A89882351F508C0B2
:103390009E012E5E3F4F84E06F85A9010E94730C51
:1033A0008A898823A9F38889882F90E09C0124507A
:1033B00030408F85882F90E0AC0142505040220F62
:1033C000331F220F331FCE010196820F931F840FEC
:1033D000951FFC0172968081898B89898BA38BA1B3
:1033E00013C08F858F5F8F878F85863008F446CF17
:1033F00082E0688941E00E94800B88898F5F888B1A
:103400008889883008F432CFA8960FB6F894DEBFCA
:103410000FBECDBFCF91DF910895DF93CF93CDB78E
:10342000DEB783E090E065E070E041E050E00E94AC
:103430007E0ACF91DF910895DF93CF93CDB7DEB7AA
:1034400083E090E065E070E041E050E00E94800B96
:10345000CF91DF910895DF93CF93CDB7DEB783E0AF
:1034600090E065E070E040E050E00E94800BCF917A
:10347000DF910895DF93CF93CDB7DEB7AA970FB64C
:10348000F894DEBF0FBECDBF82E063E041E00E9452
:103490007E0A0E948E070E94B10780E090E0AAE7B2
:1034A000B4E48FA398A7A9A7BAA76FA178A589A507
:1034B0009AA520E030E04AE753E40E941F02DC01B5
:1034C000CB018BA39CA3ADA3BEA36BA17CA18DA1BB
:1034D0009EA120E030E040E85FE30E9425048823BD
:1034E0002CF481E090E09AA389A33FC06BA17CA15A
:1034F0008DA19EA120E03FEF4FE757E40E94C50356
:1035000018164CF56FA178A589A59AA520E030E0A2
:1035100040E251E40E941F02DC01CB01BC01CD015D
:103520000E944900DC01CB019AA389A30FC089E165
:1035300090E098A38F8F8F8D98A10197F1F798A3B2
:103540008F8F89A19AA101979AA389A389A19AA192
:10355000009769F714C06BA17CA18DA19EA10E9468
:103560004900DC01CB019AA389A389A19AA19E8F6E
:103570008D8F8D8D9E8D0197F1F79E8F8D8F82E3BC
:103580000E94CC0880E090E0AAE7B4E4898F9A8F8B
:10359000AB8FBC8F698D7A8D8B8D9C8D20E030E058
:1035A0004AE753E40E941F02DC01CB018D8B9E8B06
:1035B000AF8BB88F6D897E898F89988D20E030E040
:1035C00040E85FE30E94250488232CF481E090E02A
:1035D0009C8B8B8B3FC06D897E898F89988D20E075
:1035E0003FEF4FE757E40E94C50318164CF5698D6D
:1035F0007A8D8B8D9C8D20E030E040E251E40E947A
:103600001F02DC01CB01BC01CD010E944900DC019D
:10361000CB019C8B8B8B0FC089E190E09A8B898BBF
:1036200089899A890197F1F79A8B898B8B899C8973
:1036300001979C8B8B8B8B899C89009769F714C0B1
:103640006D897E898F89988D0E944900DC01CB01AC
:103650009C8B8B8B8B899C89988B8F878F85988986
:103660000197F1F7988B8F8780E50E94CC0880E066
:1036700090E0AAE7B4E48B879C87AD87BE876B8513
:103680007C858D859E8520E030E04AE753E40E94EA
:103690001F02DC01CB018F839887A987BA876F81CE
:1036A000788589859A8520E030E040E85FE30E94D4
:1036B000250488232CF481E090E09E838D833FC015
:1036C0006F81788589859A8520E03FEF4FE757E441
:1036D0000E94C50318164CF56B857C858D859E85EB
:1036E00020E030E040E251E40E941F02DC01CB0107
:1036F000BC01CD010E944900DC01CB019E838D837A
:103700000FC089E190E09C838B838B819C81019722
:10371000F1F79C838B838D819E8101979E838D839E
:103720008D819E81009769F714C06F8178858985A6
:103730009A850E944900DC01CB019E838D838D8197
:103740009E819A83898389819A810197F1F79A836F
:10375000898384E60E94CC08A0CE629FD001739F2B
:10376000F001829FE00DF11D649FE00DF11D929F1D
:10377000F00D839FF00D749FF00D659FF00D99275C
:10378000729FB00DE11DF91F639FB00DE11DF91F80
:10379000BD01CF0111240895991B79E004C0991F40
:1037A000961708F0961B881F7A95C9F7809508959B
:1037B00097FB092E07260AD077FD04D027D006D024
:1037C00000201AF4709561957F4F0895F6F7909553
:1037D00081959F4F089597FB092E05260ED057FD22
:1037E00004D028D00AD0001C38F45095409530956C
:1037F00021953F4F4F4F5F4F0895F6F79095809575
:10380000709561957F4F8F4F9F4F0895AA1BBB1BEB
:1038100051E107C0AA1FBB1FA617B70710F0A61BD0
:10382000B70B881F991F5A95A9F780959095BC01F1
:10383000CD010895A1E21A2EAA1BBB1BFD010DC0EC
:10384000AA1FBB1FEE1FFF1FA217B307E407F50750
:1038500020F0A21BB30BE40BF50B661F771F881F2C
:10386000991F1A9469F760957095809590959B01C2
:10387000AC01BD01CF0108952F923F924F925F920C
:103880006F927F928F929F92AF92BF92CF92DF9270
:10389000EF92FF920F931F93CF93DF93CDB7DEB7D5
:1038A000CA1BDB0B0FB6F894DEBF0FBECDBF099469
:1038B0002A88398848885F846E847D848C849B84C0
:1038C000AA84B984C884DF80EE80FD800C811B81CE
:1038D000AA81B981CE0FD11D0FB6F894DEBF0FBEFD
:0A38E000CDBFED010895F894FFCF6D
:1038EA0000000000000000000001020203030303BD
:1038FA000404040404040404050505050505050576
:10390A000505050505050505060606060606060655
:10391A00060606060606060606060606060606063D
:10392A000606060606060606070707070707070725
:10393A00070707070707070707070707070707070D
:10394A0007070707070707070707070707070707FD
:10395A0007070707070707070707070707070707ED
:10396A0007070707070707070808080808080808D5
:10397A0008080808080808080808080808080808BD
:10398A0008080808080808080808080808080808AD
:10399A00080808080808080808080808080808089D
:1039AA00080808080808080808080808080808088D
:1039BA00080808080808080808080808080808087D
:1039CA00080808080808080808080808080808086D
:1039DA00080808080808080808080808080808085D
:1039EA000808080808080808010000000800000084
:1039FA00400000000001000000040000010203046E
:0C3A0A0005060708090A0B0C0D0E0F1032
:00000001FF
